{
  "contractName": "System",
  "abi": [
    {
      "inputs": [],
      "payable": false,
      "stateMutability": "nonpayable",
      "type": "constructor"
    },
    {
      "anonymous": false,
      "inputs": [
        {
          "indexed": false,
          "internalType": "string",
          "name": "description",
          "type": "string"
        }
      ],
      "name": "LogNewAlert",
      "type": "event"
    },
    {
      "constant": false,
      "inputs": [],
      "name": "Vaccinate",
      "outputs": [],
      "payable": false,
      "stateMutability": "nonpayable",
      "type": "function"
    },
    {
      "constant": false,
      "inputs": [],
      "name": "Delivered",
      "outputs": [],
      "payable": false,
      "stateMutability": "nonpayable",
      "type": "function"
    },
    {
      "constant": true,
      "inputs": [],
      "name": "Status",
      "outputs": [
        {
          "internalType": "string",
          "name": "",
          "type": "string"
        }
      ],
      "payable": false,
      "stateMutability": "view",
      "type": "function"
    }
  ],
  "bytecode": "0x608060405234801561001057600080fd5b506002600060026101000a81548160ff0219169083600281111561003057fe5b0217905550610374806100446000396000f3fe608060405234801561001057600080fd5b50600436106100415760003560e01c806345f09ce914610046578063779822f7146100c9578063de927519146100d3575b600080fd5b61004e6100dd565b6040518080602001828103825283818151815260200191508051906020019080838360005b8381101561008e578082015181840152602081019050610073565b50505050905090810190601f1680156100bb5780820380516001836020036101000a031916815260200191505b509250505060405180910390f35b6100d1610101565b005b6100db610171565b005b606060008060019054906101000a900460ff1690506100fb816101fe565b91505090565b60026000806101000a81548160ff0219169083600281111561011f57fe5b02179055507fca75c80642b93c980135b8355995abae3ab06033dc81f956b3824323b4903ef560405180806020018281038252602681526020018061031a6026913960400191505060405180910390a1565b60008060026101000a81548160ff0219169083600281111561018f57fe5b02179055507fca75c80642b93c980135b8355995abae3ab06033dc81f956b3824323b4903ef56040518080602001828103825260208152602001807f596f75722070617469656e7420686173206265656e2076616363696e6174656481525060200191505060405180910390a1565b606081600281111561020c57fe5b6000600281111561021957fe5b141561025c576040518060400160405280600a81526020017f56616363696e61746564000000000000000000000000000000000000000000008152509050610314565b81600281111561026857fe5b6001600281111561027557fe5b14156102b8576040518060400160405280600d81526020017f4e6f7456616363696e61746564000000000000000000000000000000000000008152509050610314565b8160028111156102c457fe5b6002808111156102d057fe5b1415610313576040518060400160405280600781526020017f556e6b6e6f776e000000000000000000000000000000000000000000000000008152509050610314565b5b91905056fe596f75722056616363696e65205061636b61676520686173206265656e207368697070656421a265627a7a723158202408eae20c4d724d4669b957c8410f68868a80a8036c13417a60e2d777bb9c7564736f6c63430005100032",
  "source": "pragma solidity >=0.4.22 <0.9.0;\n\ncontract System {\n    enum ShippingStatus { Pending, Shipped, Delivered }\n    enum VaccinationStatus { Vaccinated, NotVaccinated, Unknown }\n\n    ShippingStatus private status;\n    VaccinationStatus private vaccineStatus;\n\n    VaccinationStatus private patientStatus;\n    \n    event LogNewAlert(string description);\n    \n    constructor() public {\n        patientStatus = VaccinationStatus.Unknown;\n    }\n\n    function Vaccinate() public {\n        patientStatus = VaccinationStatus.Vaccinated;\n        emit LogNewAlert(\"Your patient has been vaccinated\");\n    }\n\n    function Delivered() public {\n        status = ShippingStatus.Delivered;\n        emit LogNewAlert(\"Your Vaccine Package has been shipped!\");\n\n    }\n\n    function getStatus(VaccinationStatus _status) internal pure returns (string memory) {\n        if (VaccinationStatus.Vaccinated == _status) return \"Vaccinated\";\n        if (VaccinationStatus.NotVaccinated == _status) return \"NotVaccinated\";\n        if (VaccinationStatus.Unknown == _status) return \"Unknown\";\n        \n    }\n    function Status() public view returns (string memory) {\n        VaccinationStatus _status = vaccineStatus ;\n        return getStatus(_status);\n        \n    }\n\n\n\n\n\n}",
  "sourcePath": "/home/andrew-developer/Blockchain-Network-Projects/indian-blockchain/shipping/contracts/Shipping.sol",
  "compiler": {
    "name": "solc",
    "version": "0.5.16+commit.9c3226ce.Emscripten.clang"
  },
  "schemaVersion": "3.4.3",
  "updatedAt": "2021-08-28T00:47:08.016Z",
  "networkType": "ethereum",
  "devdoc": {
    "methods": {}
  },
  "userdoc": {
    "methods": {}
  }
}